{"abi":[{"type":"constructor","inputs":[{"name":"_collateral","type":"address","internalType":"address"}],"stateMutability":"nonpayable"},{"type":"function","name":"collateral","inputs":[],"outputs":[{"name":"","type":"address","internalType":"contract IERC20"}],"stateMutability":"view"},{"type":"function","name":"listStock","inputs":[{"name":"symbol","type":"string","internalType":"string"},{"name":"name","type":"string","internalType":"string"}],"outputs":[{"name":"","type":"address","internalType":"address"}],"stateMutability":"nonpayable"},{"type":"function","name":"marketOpen","inputs":[],"outputs":[{"name":"","type":"bool","internalType":"bool"}],"stateMutability":"view"},{"type":"function","name":"maxPriceStaleness","inputs":[],"outputs":[{"name":"","type":"uint256","internalType":"uint256"}],"stateMutability":"view"},{"type":"function","name":"mint","inputs":[{"name":"symbol","type":"string","internalType":"string"},{"name":"collateralIn","type":"uint256","internalType":"uint256"}],"outputs":[{"name":"stockOut","type":"uint256","internalType":"uint256"}],"stateMutability":"nonpayable"},{"type":"function","name":"owner","inputs":[],"outputs":[{"name":"","type":"address","internalType":"address"}],"stateMutability":"view"},{"type":"function","name":"priceOf","inputs":[{"name":"symbol","type":"string","internalType":"string"}],"outputs":[{"name":"priceUsd1e8","type":"uint256","internalType":"uint256"},{"name":"updatedAt","type":"uint64","internalType":"uint64"},{"name":"fresh","type":"bool","internalType":"bool"}],"stateMutability":"view"},{"type":"function","name":"quoteMint","inputs":[{"name":"symbol","type":"string","internalType":"string"},{"name":"collateralIn","type":"uint256","internalType":"uint256"}],"outputs":[{"name":"stockOut","type":"uint256","internalType":"uint256"}],"stateMutability":"view"},{"type":"function","name":"redeem","inputs":[{"name":"symbol","type":"string","internalType":"string"},{"name":"stockIn","type":"uint256","internalType":"uint256"}],"outputs":[{"name":"collateralOut","type":"uint256","internalType":"uint256"}],"stateMutability":"nonpayable"},{"type":"function","name":"rthOnly","inputs":[],"outputs":[{"name":"","type":"bool","internalType":"bool"}],"stateMutability":"view"},{"type":"function","name":"setMarketOpen","inputs":[{"name":"open","type":"bool","internalType":"bool"}],"outputs":[],"stateMutability":"nonpayable"},{"type":"function","name":"setMaxStaleness","inputs":[{"name":"secs","type":"uint256","internalType":"uint256"}],"outputs":[],"stateMutability":"nonpayable"},{"type":"function","name":"setPrice","inputs":[{"name":"symbol","type":"string","internalType":"string"},{"name":"priceUsd1e8","type":"uint256","internalType":"uint256"}],"outputs":[],"stateMutability":"nonpayable"},{"type":"function","name":"setPrices","inputs":[{"name":"syms","type":"string[]","internalType":"string[]"},{"name":"prices","type":"uint256[]","internalType":"uint256[]"}],"outputs":[],"stateMutability":"nonpayable"},{"type":"function","name":"setRthOnly","inputs":[{"name":"on","type":"bool","internalType":"bool"}],"outputs":[],"stateMutability":"nonpayable"},{"type":"function","name":"stocks","inputs":[{"name":"","type":"string","internalType":"string"}],"outputs":[{"name":"token","type":"address","internalType":"contract DualityStockToken"},{"name":"priceUsd1e8","type":"uint256","internalType":"uint256"},{"name":"updatedAt","type":"uint64","internalType":"uint64"},{"name":"listed","type":"bool","internalType":"bool"}],"stateMutability":"view"},{"type":"function","name":"symbolCount","inputs":[],"outputs":[{"name":"","type":"uint256","internalType":"uint256"}],"stateMutability":"view"},{"type":"function","name":"symbols","inputs":[{"name":"","type":"uint256","internalType":"uint256"}],"outputs":[{"name":"","type":"string","internalType":"string"}],"stateMutability":"view"},{"type":"function","name":"tokenOf","inputs":[{"name":"symbol","type":"string","internalType":"string"}],"outputs":[{"name":"","type":"address","internalType":"address"}],"stateMutability":"view"},{"type":"event","name":"Minted","inputs":[{"name":"user","type":"address","indexed":true,"internalType":"address"},{"name":"symbol","type":"string","indexed":false,"internalType":"string"},{"name":"collateralIn","type":"uint256","indexed":false,"internalType":"uint256"},{"name":"stockOut","type":"uint256","indexed":false,"internalType":"uint256"},{"name":"priceUsd1e8","type":"uint256","indexed":false,"internalType":"uint256"}],"anonymous":false},{"type":"event","name":"PriceUpdated","inputs":[{"name":"symbol","type":"string","indexed":false,"internalType":"string"},{"name":"priceUsd1e8","type":"uint256","indexed":false,"internalType":"uint256"},{"name":"at","type":"uint64","indexed":false,"internalType":"uint64"}],"anonymous":false},{"type":"event","name":"Redeemed","inputs":[{"name":"user","type":"address","indexed":true,"internalType":"address"},{"name":"symbol","type":"string","indexed":false,"internalType":"string"},{"name":"stockIn","type":"uint256","indexed":false,"internalType":"uint256"},{"name":"collateralOut","type":"uint256","indexed":false,"internalType":"uint256"},{"name":"priceUsd1e8","type":"uint256","indexed":false,"internalType":"uint256"}],"anonymous":false},{"type":"event","name":"StockListed","inputs":[{"name":"symbol","type":"string","indexed":false,"internalType":"string"},{"name":"token","type":"address","indexed":false,"internalType":"address"}],"anonymous":false}],"bytecode":{"object":"0x60a0604052610e106001556002805461ff001916610100179055348015610024575f80fd5b5060405161261038038061261083398101604081905261004391610065565b5f80546001600160a01b031916331790556001600160a01b0316608052610092565b5f60208284031215610075575f80fd5b81516001600160a01b038116811461008b575f80fd5b9392505050565b6080516125516100bf5f395f81816103a40152818161052d01528181610fd901526110a301526125515ff3fe608060405234801562000010575f80fd5b506004361062000134575f3560e01c80639715823511620000b7578063c66bc0461162000077578063c66bc0461462000344578063c80d36b81462000357578063ccce413b1462000361578063d611ad2e1462000387578063d8dfeb45146200039e575f80fd5b80639715823514620002b1578063a05865b214620002c8578063ab9a78df14620002e7578063b1b86b131462000324578063c1e1637e146200033b575f80fd5b80632782274911620001035780632782274914620001a95780632e09360614620001c05780632efae33e14620001d757806389bcd0ee146200026e5780638da5cb5b146200029e575f80fd5b8063056b01ce146200013857806309ef2ed51462000162578063100bc9e1146200017b57806322e011921462000192575b5f80fd5b6200014f62000149366004620012e1565b620003c6565b6040519081526020015b60405180910390f35b62000179620001733660046200133d565b620006b1565b005b620001796200018c36600462001362565b620006f7565b62000179620001a3366004620012e1565b62000728565b62000179620001ba366004620013bd565b62000854565b6200014f620001d1366004620012e1565b62000a7b565b62000233620001e83660046200143e565b80516020818301810180516003825292820191909301209152805460018201546002909201546001600160a01b0390911691906001600160401b03811690600160401b900460ff1684565b604080516001600160a01b03909516855260208501939093526001600160401b03909116918301919091521515606082015260800162000159565b620002856200027f366004620014f2565b62000ad6565b6040516001600160a01b03909116815260200162000159565b5f5462000285906001600160a01b031681565b62000285620002c236600462001553565b62000d09565b600254620002d69060ff1681565b604051901515815260200162000159565b620002fe620002f836600462001553565b62000d40565b604080519384526001600160401b03909216602084015215159082015260600162000159565b6200014f62000335366004620012e1565b62000df3565b6004546200014f565b600254620002d690610100900460ff1681565b6200014f60015481565b620003786200037236600462001362565b6200119e565b604051620001599190620015da565b62000179620003983660046200133d565b6200124d565b620002857f000000000000000000000000000000000000000000000000000000000000000081565b6002545f90610100900460ff1680620003e2575060025460ff16155b620004245760405162461bcd60e51b815260206004820152600d60248201526c13505492d15517d0d313d4d151609a1b60448201526064015b60405180910390fd5b5f6003858560405162000439929190620015ee565b908152604051908190036020019020600281015490915060ff600160401b909104166200047a5760405162461bcd60e51b81526004016200041b90620015fd565b60028101546001600160401b031615801590620004b257506001546002820154620004af906001600160401b03164262001635565b11155b620004d15760405162461bcd60e51b81526004016200041b906200164b565b5f83116200050b5760405162461bcd60e51b81526004016200041b906020808252600490820152635a45524f60e01b604082015260600190565b6040516323b872dd60e01b8152336004820152306024820152604481018490527f00000000000000000000000000000000000000000000000000000000000000006001600160a01b0316906323b872dd906064016020604051808303815f875af11580156200057c573d5f803e3d5ffd5b505050506040513d601f19601f82011682018060405250810190620005a2919062001670565b620005e05760405162461bcd60e51b815260206004820152600d60248201526c21a7a62620aa22a920a62fa4a760991b60448201526064016200041b565b6001810154620005f5846305f5e1006200168e565b620006019190620016a8565b81546040516340c10f1960e01b8152336004820152602481018390529193506001600160a01b0316906340c10f19906044015f604051808303815f87803b1580156200064b575f80fd5b505af11580156200065e573d5f803e3d5ffd5b50505060018201546040513392507f1389ac084d880203997180b372ff78169d5ff5c89e7df80ca3b21cc9e4b626a991620006a1918991899189918991620016f0565b60405180910390a2509392505050565b5f546001600160a01b03163314620006dd5760405162461bcd60e51b81526004016200041b9062001722565b600280549115156101000261ff0019909216919091179055565b5f546001600160a01b03163314620007235760405162461bcd60e51b81526004016200041b9062001722565b600155565b5f546001600160a01b03163314620007545760405162461bcd60e51b81526004016200041b9062001722565b5f6003848460405162000769929190620015ee565b908152604051908190036020019020600281015490915060ff600160401b90910416620007aa5760405162461bcd60e51b81526004016200041b90620015fd565b5f8211620007e75760405162461bcd60e51b81526020600482015260096024820152684241445f505249434560b81b60448201526064016200041b565b6001810182905560028101805467ffffffffffffffff1916426001600160401b03169081179091556040517fce342329fd2170f781c36962317da9012a21d583829f8f059d81216c22532eaa9162000846918791879187919062001746565b60405180910390a150505050565b5f546001600160a01b03163314620008805760405162461bcd60e51b81526004016200041b9062001722565b828114620008b75760405162461bcd60e51b81526020600482015260036024820152622622a760e91b60448201526064016200041b565b5f5b8381101562000a74575f6003868684818110620008da57620008da6200177b565b9050602002810190620008ee91906200178f565b604051620008fe929190620015ee565b908152604051908190036020019020600281015490915060ff600160401b909104166200093f5760405162461bcd60e51b81526004016200041b90620015fd565b5f8484848181106200095557620009556200177b565b9050602002013511620009975760405162461bcd60e51b81526020600482015260096024820152684241445f505249434560b81b60448201526064016200041b565b838383818110620009ac57620009ac6200177b565b602002919091013560018301555060028101805467ffffffffffffffff1916426001600160401b03161790557fce342329fd2170f781c36962317da9012a21d583829f8f059d81216c22532eaa86868481811062000a0e5762000a0e6200177b565b905060200281019062000a2291906200178f565b86868681811062000a375762000a376200177b565b600287015460405162000a629695946020909302929092013592506001600160401b03169062001746565b60405180910390a150600101620008b9565b5050505050565b5f805f62000a8a868662000d40565b92505091508062000aaf5760405162461bcd60e51b81526004016200041b906200164b565b8162000ac0856305f5e1006200168e565b62000acc9190620016a8565b9695505050505050565b5f80546001600160a01b0316331462000b035760405162461bcd60e51b81526004016200041b9062001722565b6003858560405162000b17929190620015ee565b9081526040519081900360200190206002015460ff600160401b909104161562000b6d5760405162461bcd60e51b8152602060048201526006602482015265131254d5115160d21b60448201526064016200041b565b5f8383878760405160200162000b85929190620017d4565b6040516020818303038152906040523060405162000ba3906200128c565b62000bb29493929190620017f0565b604051809103905ff08015801562000bcc573d5f803e3d5ffd5b50604080516080810182526001600160a01b03831681525f60208201819052818301526001606082015290519192509060039062000c0e9089908990620015ee565b90815260408051918290036020908101909220835181546001600160a01b039091166001600160a01b03199091161781559183015160018084019190915590830151600290920180546060909401511515600160401b0268ffffffffffffffffff199094166001600160401b03909316929092179290921790556004805491820181555f527f8a35acfbc15ff81a39ae7d344fd709f28e8600b4aa8c65c6b64bfe7fe36bd19b0162000cc2868883620018ba565b507fb46fca9c4d23748a2a160cc6674bece6b2cc4bad75829301a74da92b7f31451086868360405162000cf89392919062001980565b60405180910390a195945050505050565b5f6003838360405162000d1e929190620015ee565b908152604051908190036020019020546001600160a01b031690505b92915050565b5f805f806003868660405162000d58929190620015ee565b908152604051908190036020019020600281015490915060ff600160401b9091041662000d995760405162461bcd60e51b81526004016200041b90620015fd565b60028101546001600160401b03161580159062000dd15750600154600282015462000dce906001600160401b03164262001635565b11155b600182015460029092015491976001600160401b039092169650945092505050565b6002545f90610100900460ff168062000e0f575060025460ff16155b62000e4d5760405162461bcd60e51b815260206004820152600d60248201526c13505492d15517d0d313d4d151609a1b60448201526064016200041b565b5f6003858560405162000e62929190620015ee565b908152604051908190036020019020600281015490915060ff600160401b9091041662000ea35760405162461bcd60e51b81526004016200041b90620015fd565b60028101546001600160401b03161580159062000edb5750600154600282015462000ed8906001600160401b03164262001635565b11155b62000efa5760405162461bcd60e51b81526004016200041b906200164b565b5f831162000f345760405162461bcd60e51b81526004016200041b906020808252600490820152635a45524f60e01b604082015260600190565b8054604051632770a7eb60e21b8152336004820152602481018590526001600160a01b0390911690639dc29fac906044015f604051808303815f87803b15801562000f7d575f80fd5b505af115801562000f90573d5f803e3d5ffd5b505050506305f5e10081600101548462000fab91906200168e565b62000fb79190620016a8565b6040516370a0823160e01b815230600482015290925082906001600160a01b037f000000000000000000000000000000000000000000000000000000000000000016906370a0823190602401602060405180830381865afa1580156200101f573d5f803e3d5ffd5b505050506040513d601f19601f82011682018060405250810190620010459190620019ad565b1015620010875760405162461bcd60e51b815260206004820152600f60248201526e5641554c545f4c495155494449545960881b60448201526064016200041b565b60405163a9059cbb60e01b8152336004820152602481018390527f00000000000000000000000000000000000000000000000000000000000000006001600160a01b03169063a9059cbb906044016020604051808303815f875af1158015620010f2573d5f803e3d5ffd5b505050506040513d601f19601f8201168201806040525081019062001118919062001670565b620011575760405162461bcd60e51b815260206004820152600e60248201526d10d3d31310551154905317d3d55560921b60448201526064016200041b565b336001600160a01b03167f7cf3f5216a1e8384b5b6cf26f7f178d5cde36db424df131458892913fac287f1868686868660010154604051620006a1959493929190620016f0565b60048181548110620011ae575f80fd5b905f5260205f20015f915090508054620011c89062001833565b80601f0160208091040260200160405190810160405280929190818152602001828054620011f69062001833565b8015620012455780601f106200121b5761010080835404028352916020019162001245565b820191905f5260205f20905b8154815290600101906020018083116200122757829003601f168201915b505050505081565b5f546001600160a01b03163314620012795760405162461bcd60e51b81526004016200041b9062001722565b6002805460ff1916911515919091179055565b610b5680620019c683390190565b5f8083601f840112620012ab575f80fd5b5081356001600160401b03811115620012c2575f80fd5b602083019150836020828501011115620012da575f80fd5b9250929050565b5f805f60408486031215620012f4575f80fd5b83356001600160401b038111156200130a575f80fd5b62001318868287016200129a565b909790965060209590950135949350505050565b80151581146200133a575f80fd5b50565b5f602082840312156200134e575f80fd5b81356200135b816200132c565b9392505050565b5f6020828403121562001373575f80fd5b5035919050565b5f8083601f8401126200138b575f80fd5b5081356001600160401b03811115620013a2575f80fd5b6020830191508360208260051b8501011115620012da575f80fd5b5f805f8060408587031215620013d1575f80fd5b84356001600160401b0380821115620013e8575f80fd5b620013f6888389016200137a565b909650945060208701359150808211156200140f575f80fd5b506200141e878288016200137a565b95989497509550505050565b634e487b7160e01b5f52604160045260245ffd5b5f602082840312156200144f575f80fd5b81356001600160401b038082111562001466575f80fd5b818401915084601f8301126200147a575f80fd5b8135818111156200148f576200148f6200142a565b604051601f8201601f19908116603f01168101908382118183101715620014ba57620014ba6200142a565b81604052828152876020848701011115620014d3575f80fd5b826020860160208301375f928101602001929092525095945050505050565b5f805f806040858703121562001506575f80fd5b84356001600160401b03808211156200151d575f80fd5b6200152b888389016200129a565b9096509450602087013591508082111562001544575f80fd5b506200141e878288016200129a565b5f806020838503121562001565575f80fd5b82356001600160401b038111156200157b575f80fd5b62001589858286016200129a565b90969095509350505050565b5f81518084525f5b81811015620015bb576020818501810151868301820152016200159d565b505f602082860101526020601f19601f83011685010191505092915050565b602081525f6200135b602083018462001595565b818382375f9101908152919050565b6020808252600a90820152691393d517d31254d5115160b21b604082015260600190565b634e487b7160e01b5f52601160045260245ffd5b8181038181111562000d3a5762000d3a62001621565b6020808252600b908201526a5354414c455f505249434560a81b604082015260600190565b5f6020828403121562001681575f80fd5b81516200135b816200132c565b808202811582820484141762000d3a5762000d3a62001621565b5f82620016c357634e487b7160e01b5f52601260045260245ffd5b500490565b81835281816020850137505f828201602090810191909152601f909101601f19169091010190565b608081525f62001705608083018789620016c8565b602083019590955250604081019290925260609091015292915050565b6020808252600a908201526927a7262cafa7aba722a960b11b604082015260600190565b606081525f6200175b606083018688620016c8565b90508360208301526001600160401b038316604083015295945050505050565b634e487b7160e01b5f52603260045260245ffd5b5f808335601e19843603018112620017a5575f80fd5b8301803591506001600160401b03821115620017bf575f80fd5b602001915036819003821315620012da575f80fd5b601960fa1b8152818360018301375f9101600101908152919050565b606081525f62001805606083018688620016c8565b828103602084015262001819818662001595565b91505060018060a01b038316604083015295945050505050565b600181811c908216806200184857607f821691505b6020821081036200186757634e487b7160e01b5f52602260045260245ffd5b50919050565b601f821115620018b557805f5260205f20601f840160051c81016020851015620018945750805b601f840160051c820191505b8181101562000a74575f8155600101620018a0565b505050565b6001600160401b03831115620018d457620018d46200142a565b620018ec83620018e5835462001833565b836200186d565b5f601f84116001811462001920575f8515620019085750838201355b5f19600387901b1c1916600186901b17835562000a74565b5f83815260208120601f198716915b828110156200195157868501358255602094850194600190920191016200192f565b50868210156200196e575f1960f88860031b161c19848701351681555b505060018560011b0183555050505050565b604081525f62001995604083018587620016c8565b905060018060a01b0383166020830152949350505050565b5f60208284031215620019be575f80fd5b505191905056fe60a060405234801562000010575f80fd5b5060405162000b5638038062000b56833981016040819052620000339162000126565b5f62000040848262000237565b5060016200004f838262000237565b506001600160a01b031660805250620003039050565b634e487b7160e01b5f52604160045260245ffd5b5f82601f83011262000089575f80fd5b81516001600160401b0380821115620000a657620000a662000065565b604051601f8301601f19908116603f01168101908282118183101715620000d157620000d162000065565b8160405283815260209250866020858801011115620000ee575f80fd5b5f91505b83821015620001115785820183015181830184015290820190620000f2565b5f602085830101528094505050505092915050565b5f805f6060848603121562000139575f80fd5b83516001600160401b038082111562000150575f80fd5b6200015e8783880162000079565b9450602086015191508082111562000174575f80fd5b50620001838682870162000079565b604086015190935090506001600160a01b0381168114620001a2575f80fd5b809150509250925092565b600181811c90821680620001c257607f821691505b602082108103620001e157634e487b7160e01b5f52602260045260245ffd5b50919050565b601f8211156200023257805f5260205f20601f840160051c810160208510156200020e5750805b601f840160051c820191505b818110156200022f575f81556001016200021a565b50505b505050565b81516001600160401b0381111562000253576200025362000065565b6200026b81620002648454620001ad565b84620001e7565b602080601f831160018114620002a1575f8415620002895750858301515b5f19600386901b1c1916600185901b178555620002fb565b5f85815260208120601f198616915b82811015620002d157888601518255948401946001909101908401620002b0565b5085821015620002ef57878501515f19600388901b60f8161c191681555b505060018460011b0185555b505050505050565b60805161082c6200032a5f395f81816101cb015281816103b70152610493015261082c5ff3fe608060405234801561000f575f80fd5b50600436106100b1575f3560e01c806370a082311161006e57806370a082311461014f57806395d89b411461016e5780639dc29fac14610176578063a9059cbb14610189578063dd62ed3e1461019c578063fbfa77cf146101c6575f80fd5b806306fdde03146100b5578063095ea7b3146100d357806318160ddd146100f657806323b872dd1461010d578063313ce5671461012057806340c10f191461013a575b5f80fd5b6100bd610205565b6040516100ca919061066b565b60405180910390f35b6100e66100e13660046106d2565b610290565b60405190151581526020016100ca565b6100ff60025481565b6040519081526020016100ca565b6100e661011b3660046106fa565b6102fc565b610128601281565b60405160ff90911681526020016100ca565b61014d6101483660046106d2565b6103ac565b005b6100ff61015d366004610733565b60036020525f908152604090205481565b6100bd61047b565b61014d6101843660046106d2565b610488565b6100e66101973660046106d2565b610597565b6100ff6101aa366004610753565b600460209081525f928352604080842090915290825290205481565b6101ed7f000000000000000000000000000000000000000000000000000000000000000081565b6040516001600160a01b0390911681526020016100ca565b5f805461021190610784565b80601f016020809104026020016040519081016040528092919081815260200182805461023d90610784565b80156102885780601f1061025f57610100808354040283529160200191610288565b820191905f5260205f20905b81548152906001019060200180831161026b57829003601f168201915b505050505081565b335f8181526004602090815260408083206001600160a01b038716808552925280832085905551919290917f8c5be1e5ebec7d5bd14f71427d1e84f3dd0314c0f7b2291e5b200ac8c7c3b925906102ea9086815260200190565b60405180910390a35060015b92915050565b6001600160a01b0383165f9081526004602090815260408083203384529091528120545f19811461039657828110156103685760405162461bcd60e51b8152602060048201526009602482015268414c4c4f57414e434560b81b60448201526064015b60405180910390fd5b61037283826107d0565b6001600160a01b0386165f9081526004602090815260408083203384529091529020555b6103a18585856105ac565b506001949350505050565b336001600160a01b037f000000000000000000000000000000000000000000000000000000000000000016146104115760405162461bcd60e51b815260206004820152600a60248201526913d3931657d59055531560b21b604482015260640161035f565b8060025f82825461042291906107e3565b90915550506001600160a01b0382165f818152600360209081526040808320805486019055518481527fddf252ad1be2c89b69c2b068fc378daa952ba7f163c4a11628f55a4df523b3ef91015b60405180910390a35050565b6001805461021190610784565b336001600160a01b037f000000000000000000000000000000000000000000000000000000000000000016146104ed5760405162461bcd60e51b815260206004820152600a60248201526913d3931657d59055531560b21b604482015260640161035f565b6001600160a01b0382165f9081526003602052604090205481111561053e5760405162461bcd60e51b815260206004820152600760248201526642414c414e434560c81b604482015260640161035f565b6001600160a01b0382165f81815260036020908152604080832080548690039055600280548690039055518481529192917fddf252ad1be2c89b69c2b068fc378daa952ba7f163c4a11628f55a4df523b3ef910161046f565b5f6105a33384846105ac565b50600192915050565b6001600160a01b0383165f908152600360205260409020548111156105fd5760405162461bcd60e51b815260206004820152600760248201526642414c414e434560c81b604482015260640161035f565b6001600160a01b038084165f81815260036020526040808220805486900390559285168082529083902080548501905591517fddf252ad1be2c89b69c2b068fc378daa952ba7f163c4a11628f55a4df523b3ef9061065e9085815260200190565b60405180910390a3505050565b5f602080835283518060208501525f5b818110156106975785810183015185820160400152820161067b565b505f604082860101526040601f19601f8301168501019250505092915050565b80356001600160a01b03811681146106cd575f80fd5b919050565b5f80604083850312156106e3575f80fd5b6106ec836106b7565b946020939093013593505050565b5f805f6060848603121561070c575f80fd5b610715846106b7565b9250610723602085016106b7565b9150604084013590509250925092565b5f60208284031215610743575f80fd5b61074c826106b7565b9392505050565b5f8060408385031215610764575f80fd5b61076d836106b7565b915061077b602084016106b7565b90509250929050565b600181811c9082168061079857607f821691505b6020821081036107b657634e487b7160e01b5f52602260045260245ffd5b50919050565b634e487b7160e01b5f52601160045260245ffd5b818103818111156102f6576102f66107bc565b808201808211156102f6576102f66107bc56fea2646970667358221220a9b9884c9cc538821251164386cb5b3f079b94f629c752b8cad86d0210f0520764736f6c63430008180033a264697066735822122021ac4f0fdc91cc537d074d69e274b06cb62ec615d67864538111adff7d5b180464736f6c63430008180033","linkReferences":{}},"methodIdentifiers":{"collateral()":"d8dfeb45","listStock(string,string)":"89bcd0ee","marketOpen()":"c66bc046","maxPriceStaleness()":"c80d36b8","mint(string,uint256)":"056b01ce","owner()":"8da5cb5b","priceOf(string)":"ab9a78df","quoteMint(string,uint256)":"2e093606","redeem(string,uint256)":"b1b86b13","rthOnly()":"a05865b2","setMarketOpen(bool)":"09ef2ed5","setMaxStaleness(uint256)":"100bc9e1","setPrice(string,uint256)":"22e01192","setPrices(string[],uint256[])":"27822749","setRthOnly(bool)":"d611ad2e","stocks(string)":"2efae33e","symbolCount()":"c1e1637e","symbols(uint256)":"ccce413b","tokenOf(string)":"97158235"},"id":16}