{"abi":[{"type":"constructor","inputs":[{"name":"_name","type":"string","internalType":"string"},{"name":"_symbol","type":"string","internalType":"string"},{"name":"_vault","type":"address","internalType":"address"}],"stateMutability":"nonpayable"},{"type":"function","name":"allowance","inputs":[{"name":"","type":"address","internalType":"address"},{"name":"","type":"address","internalType":"address"}],"outputs":[{"name":"","type":"uint256","internalType":"uint256"}],"stateMutability":"view"},{"type":"function","name":"approve","inputs":[{"name":"spender","type":"address","internalType":"address"},{"name":"amount","type":"uint256","internalType":"uint256"}],"outputs":[{"name":"","type":"bool","internalType":"bool"}],"stateMutability":"nonpayable"},{"type":"function","name":"balanceOf","inputs":[{"name":"","type":"address","internalType":"address"}],"outputs":[{"name":"","type":"uint256","internalType":"uint256"}],"stateMutability":"view"},{"type":"function","name":"burn","inputs":[{"name":"from","type":"address","internalType":"address"},{"name":"amount","type":"uint256","internalType":"uint256"}],"outputs":[],"stateMutability":"nonpayable"},{"type":"function","name":"decimals","inputs":[],"outputs":[{"name":"","type":"uint8","internalType":"uint8"}],"stateMutability":"view"},{"type":"function","name":"mint","inputs":[{"name":"to","type":"address","internalType":"address"},{"name":"amount","type":"uint256","internalType":"uint256"}],"outputs":[],"stateMutability":"nonpayable"},{"type":"function","name":"name","inputs":[],"outputs":[{"name":"","type":"string","internalType":"string"}],"stateMutability":"view"},{"type":"function","name":"symbol","inputs":[],"outputs":[{"name":"","type":"string","internalType":"string"}],"stateMutability":"view"},{"type":"function","name":"totalSupply","inputs":[],"outputs":[{"name":"","type":"uint256","internalType":"uint256"}],"stateMutability":"view"},{"type":"function","name":"transfer","inputs":[{"name":"to","type":"address","internalType":"address"},{"name":"amount","type":"uint256","internalType":"uint256"}],"outputs":[{"name":"","type":"bool","internalType":"bool"}],"stateMutability":"nonpayable"},{"type":"function","name":"transferFrom","inputs":[{"name":"from","type":"address","internalType":"address"},{"name":"to","type":"address","internalType":"address"},{"name":"amount","type":"uint256","internalType":"uint256"}],"outputs":[{"name":"","type":"bool","internalType":"bool"}],"stateMutability":"nonpayable"},{"type":"function","name":"vault","inputs":[],"outputs":[{"name":"","type":"address","internalType":"address"}],"stateMutability":"view"},{"type":"event","name":"Approval","inputs":[{"name":"owner","type":"address","indexed":true,"internalType":"address"},{"name":"spender","type":"address","indexed":true,"internalType":"address"},{"name":"value","type":"uint256","indexed":false,"internalType":"uint256"}],"anonymous":false},{"type":"event","name":"Transfer","inputs":[{"name":"from","type":"address","indexed":true,"internalType":"address"},{"name":"to","type":"address","indexed":true,"internalType":"address"},{"name":"value","type":"uint256","indexed":false,"internalType":"uint256"}],"anonymous":false}],"bytecode":{"object":"0x60a060405234801562000010575f80fd5b5060405162000b5638038062000b56833981016040819052620000339162000126565b5f62000040848262000237565b5060016200004f838262000237565b506001600160a01b031660805250620003039050565b634e487b7160e01b5f52604160045260245ffd5b5f82601f83011262000089575f80fd5b81516001600160401b0380821115620000a657620000a662000065565b604051601f8301601f19908116603f01168101908282118183101715620000d157620000d162000065565b8160405283815260209250866020858801011115620000ee575f80fd5b5f91505b83821015620001115785820183015181830184015290820190620000f2565b5f602085830101528094505050505092915050565b5f805f6060848603121562000139575f80fd5b83516001600160401b038082111562000150575f80fd5b6200015e8783880162000079565b9450602086015191508082111562000174575f80fd5b50620001838682870162000079565b604086015190935090506001600160a01b0381168114620001a2575f80fd5b809150509250925092565b600181811c90821680620001c257607f821691505b602082108103620001e157634e487b7160e01b5f52602260045260245ffd5b50919050565b601f8211156200023257805f5260205f20601f840160051c810160208510156200020e5750805b601f840160051c820191505b818110156200022f575f81556001016200021a565b50505b505050565b81516001600160401b0381111562000253576200025362000065565b6200026b81620002648454620001ad565b84620001e7565b602080601f831160018114620002a1575f8415620002895750858301515b5f19600386901b1c1916600185901b178555620002fb565b5f85815260208120601f198616915b82811015620002d157888601518255948401946001909101908401620002b0565b5085821015620002ef57878501515f19600388901b60f8161c191681555b505060018460011b0185555b505050505050565b60805161082c6200032a5f395f81816101cb015281816103b70152610493015261082c5ff3fe608060405234801561000f575f80fd5b50600436106100b1575f3560e01c806370a082311161006e57806370a082311461014f57806395d89b411461016e5780639dc29fac14610176578063a9059cbb14610189578063dd62ed3e1461019c578063fbfa77cf146101c6575f80fd5b806306fdde03146100b5578063095ea7b3146100d357806318160ddd146100f657806323b872dd1461010d578063313ce5671461012057806340c10f191461013a575b5f80fd5b6100bd610205565b6040516100ca919061066b565b60405180910390f35b6100e66100e13660046106d2565b610290565b60405190151581526020016100ca565b6100ff60025481565b6040519081526020016100ca565b6100e661011b3660046106fa565b6102fc565b610128601281565b60405160ff90911681526020016100ca565b61014d6101483660046106d2565b6103ac565b005b6100ff61015d366004610733565b60036020525f908152604090205481565b6100bd61047b565b61014d6101843660046106d2565b610488565b6100e66101973660046106d2565b610597565b6100ff6101aa366004610753565b600460209081525f928352604080842090915290825290205481565b6101ed7f000000000000000000000000000000000000000000000000000000000000000081565b6040516001600160a01b0390911681526020016100ca565b5f805461021190610784565b80601f016020809104026020016040519081016040528092919081815260200182805461023d90610784565b80156102885780601f1061025f57610100808354040283529160200191610288565b820191905f5260205f20905b81548152906001019060200180831161026b57829003601f168201915b505050505081565b335f8181526004602090815260408083206001600160a01b038716808552925280832085905551919290917f8c5be1e5ebec7d5bd14f71427d1e84f3dd0314c0f7b2291e5b200ac8c7c3b925906102ea9086815260200190565b60405180910390a35060015b92915050565b6001600160a01b0383165f9081526004602090815260408083203384529091528120545f19811461039657828110156103685760405162461bcd60e51b8152602060048201526009602482015268414c4c4f57414e434560b81b60448201526064015b60405180910390fd5b61037283826107d0565b6001600160a01b0386165f9081526004602090815260408083203384529091529020555b6103a18585856105ac565b506001949350505050565b336001600160a01b037f000000000000000000000000000000000000000000000000000000000000000016146104115760405162461bcd60e51b815260206004820152600a60248201526913d3931657d59055531560b21b604482015260640161035f565b8060025f82825461042291906107e3565b90915550506001600160a01b0382165f818152600360209081526040808320805486019055518481527fddf252ad1be2c89b69c2b068fc378daa952ba7f163c4a11628f55a4df523b3ef91015b60405180910390a35050565b6001805461021190610784565b336001600160a01b037f000000000000000000000000000000000000000000000000000000000000000016146104ed5760405162461bcd60e51b815260206004820152600a60248201526913d3931657d59055531560b21b604482015260640161035f565b6001600160a01b0382165f9081526003602052604090205481111561053e5760405162461bcd60e51b815260206004820152600760248201526642414c414e434560c81b604482015260640161035f565b6001600160a01b0382165f81815260036020908152604080832080548690039055600280548690039055518481529192917fddf252ad1be2c89b69c2b068fc378daa952ba7f163c4a11628f55a4df523b3ef910161046f565b5f6105a33384846105ac565b50600192915050565b6001600160a01b0383165f908152600360205260409020548111156105fd5760405162461bcd60e51b815260206004820152600760248201526642414c414e434560c81b604482015260640161035f565b6001600160a01b038084165f81815260036020526040808220805486900390559285168082529083902080548501905591517fddf252ad1be2c89b69c2b068fc378daa952ba7f163c4a11628f55a4df523b3ef9061065e9085815260200190565b60405180910390a3505050565b5f602080835283518060208501525f5b818110156106975785810183015185820160400152820161067b565b505f604082860101526040601f19601f8301168501019250505092915050565b80356001600160a01b03811681146106cd575f80fd5b919050565b5f80604083850312156106e3575f80fd5b6106ec836106b7565b946020939093013593505050565b5f805f6060848603121561070c575f80fd5b610715846106b7565b9250610723602085016106b7565b9150604084013590509250925092565b5f60208284031215610743575f80fd5b61074c826106b7565b9392505050565b5f8060408385031215610764575f80fd5b61076d836106b7565b915061077b602084016106b7565b90509250929050565b600181811c9082168061079857607f821691505b6020821081036107b657634e487b7160e01b5f52602260045260245ffd5b50919050565b634e487b7160e01b5f52601160045260245ffd5b818103818111156102f6576102f66107bc565b808201808211156102f6576102f66107bc56fea2646970667358221220a9b9884c9cc538821251164386cb5b3f079b94f629c752b8cad86d0210f0520764736f6c63430008180033","linkReferences":{}},"methodIdentifiers":{"allowance(address,address)":"dd62ed3e","approve(address,uint256)":"095ea7b3","balanceOf(address)":"70a08231","burn(address,uint256)":"9dc29fac","decimals()":"313ce567","mint(address,uint256)":"40c10f19","name()":"06fdde03","symbol()":"95d89b41","totalSupply()":"18160ddd","transfer(address,uint256)":"a9059cbb","transferFrom(address,address,uint256)":"23b872dd","vault()":"fbfa77cf"},"id":16}