{"abi":[{"type":"constructor","inputs":[{"name":"t0","type":"address","internalType":"address"},{"name":"t1","type":"address","internalType":"address"},{"name":"_pair","type":"string","internalType":"string"},{"name":"_feeBps","type":"uint16","internalType":"uint16"}],"stateMutability":"nonpayable"},{"type":"function","name":"addLiquidity","inputs":[{"name":"a0","type":"uint256","internalType":"uint256"},{"name":"a1","type":"uint256","internalType":"uint256"}],"outputs":[{"name":"minted","type":"uint256","internalType":"uint256"}],"stateMutability":"nonpayable"},{"type":"function","name":"feeBps","inputs":[],"outputs":[{"name":"","type":"uint16","internalType":"uint16"}],"stateMutability":"view"},{"type":"function","name":"pair","inputs":[],"outputs":[{"name":"","type":"string","internalType":"string"}],"stateMutability":"view"},{"type":"function","name":"quote","inputs":[{"name":"zeroForOne","type":"bool","internalType":"bool"},{"name":"amountIn","type":"uint256","internalType":"uint256"}],"outputs":[{"name":"","type":"uint256","internalType":"uint256"}],"stateMutability":"view"},{"type":"function","name":"removeLiquidity","inputs":[{"name":"s","type":"uint256","internalType":"uint256"}],"outputs":[{"name":"a0","type":"uint256","internalType":"uint256"},{"name":"a1","type":"uint256","internalType":"uint256"}],"stateMutability":"nonpayable"},{"type":"function","name":"reserve0","inputs":[],"outputs":[{"name":"","type":"uint256","internalType":"uint256"}],"stateMutability":"view"},{"type":"function","name":"reserve1","inputs":[],"outputs":[{"name":"","type":"uint256","internalType":"uint256"}],"stateMutability":"view"},{"type":"function","name":"shares","inputs":[{"name":"","type":"address","internalType":"address"}],"outputs":[{"name":"","type":"uint256","internalType":"uint256"}],"stateMutability":"view"},{"type":"function","name":"swap","inputs":[{"name":"zeroForOne","type":"bool","internalType":"bool"},{"name":"amountIn","type":"uint256","internalType":"uint256"},{"name":"minOut","type":"uint256","internalType":"uint256"}],"outputs":[{"name":"amountOut","type":"uint256","internalType":"uint256"}],"stateMutability":"nonpayable"},{"type":"function","name":"token0","inputs":[],"outputs":[{"name":"","type":"address","internalType":"contract IERC20"}],"stateMutability":"view"},{"type":"function","name":"token1","inputs":[],"outputs":[{"name":"","type":"address","internalType":"contract IERC20"}],"stateMutability":"view"},{"type":"function","name":"totalShares","inputs":[],"outputs":[{"name":"","type":"uint256","internalType":"uint256"}],"stateMutability":"view"},{"type":"event","name":"LiquidityAdded","inputs":[{"name":"who","type":"address","indexed":true,"internalType":"address"},{"name":"amount0","type":"uint256","indexed":false,"internalType":"uint256"},{"name":"amount1","type":"uint256","indexed":false,"internalType":"uint256"},{"name":"sharesMinted","type":"uint256","indexed":false,"internalType":"uint256"}],"anonymous":false},{"type":"event","name":"LiquidityRemoved","inputs":[{"name":"who","type":"address","indexed":true,"internalType":"address"},{"name":"amount0","type":"uint256","indexed":false,"internalType":"uint256"},{"name":"amount1","type":"uint256","indexed":false,"internalType":"uint256"},{"name":"sharesBurned","type":"uint256","indexed":false,"internalType":"uint256"}],"anonymous":false},{"type":"event","name":"Swapped","inputs":[{"name":"who","type":"address","indexed":true,"internalType":"address"},{"name":"zeroForOne","type":"bool","indexed":false,"internalType":"bool"},{"name":"amountIn","type":"uint256","indexed":false,"internalType":"uint256"},{"name":"amountOut","type":"uint256","indexed":false,"internalType":"uint256"}],"anonymous":false}],"bytecode":{"object":"0x60e060405234801562000010575f80fd5b50604051620012ef380380620012ef8339810160408190526200003391620000a7565b6001600160a01b03808516608052831660a0525f62000053838262000236565b5061ffff1660c0525062000302915050565b80516001600160a01b03811681146200007c575f80fd5b919050565b634e487b7160e01b5f52604160045260245ffd5b805161ffff811681146200007c575f80fd5b5f805f8060808587031215620000bb575f80fd5b620000c68562000065565b93506020620000d781870162000065565b60408701519094506001600160401b0380821115620000f4575f80fd5b818801915088601f83011262000108575f80fd5b8151818111156200011d576200011d62000081565b604051601f8201601f19908116603f0116810190838211818310171562000148576200014862000081565b816040528281528b8684870101111562000160575f80fd5b5f93505b8284101562000183578484018601518185018701529285019262000164565b5f868483010152809750505050505050620001a16060860162000095565b905092959194509250565b600181811c90821680620001c157607f821691505b602082108103620001e057634e487b7160e01b5f52602260045260245ffd5b50919050565b601f8211156200023157805f5260205f20601f840160051c810160208510156200020d5750805b601f840160051c820191505b818110156200022e575f815560010162000219565b50505b505050565b81516001600160401b0381111562000252576200025262000081565b6200026a81620002638454620001ac565b84620001e6565b602080601f831160018114620002a0575f8415620002885750858301515b5f19600386901b1c1916600185901b178555620002fa565b5f85815260208120601f198616915b82811015620002d057888601518255948401946001909101908401620002af565b5085821015620002ee57878501515f19600388901b60f8161c191681555b505060018460011b0185555b505050505050565b60805160a05160c051610f7d620003725f395f818161011f015281816103b701526105ee01525f81816101f60152818161026b015281816102d9015281816108310152610a4e01525f818160e00152818161028c015281816102b80152818161076e01526109860152610f7d5ff3fe608060405234801561000f575f80fd5b50600436106100b1575f3560e01c80635a76f25e1161006e5780635a76f25e146101795780639c8f9f23146101825780639cd441da146101aa578063a8aa1b31146101bd578063ce7c2ac2146101d2578063d21220a7146101f1575f80fd5b806308c84c21146100b55780630dfe1681146100db57806324a9d8531461011a5780633a98ef3914610154578063443cb4bc1461015d5780634df60b0114610166575b5f80fd5b6100c86100c3366004610d63565b610218565b6040519081526020015b60405180910390f35b6101027f000000000000000000000000000000000000000000000000000000000000000081565b6040516001600160a01b0390911681526020016100d2565b6101417f000000000000000000000000000000000000000000000000000000000000000081565b60405161ffff90911681526020016100d2565b6100c860035481565b6100c860015481565b6100c8610174366004610d95565b6105b6565b6100c860025481565b610195610190366004610dbf565b610657565b604080519283526020830191909152016100d2565b6100c86101b8366004610dd6565b610920565b6101c5610c43565b6040516100d29190610df6565b6100c86101e0366004610e42565b60046020525f908152604090205481565b6101027f000000000000000000000000000000000000000000000000000000000000000081565b5f808311801561022957505f600354115b6102605760405162461bcd60e51b815260206004820152600360248201526210905160ea1b60448201526064015b60405180910390fd5b5f805f80876102b6577f00000000000000000000000000000000000000000000000000000000000000007f00000000000000000000000000000000000000000000000000000000000000006002546001546102ff565b7f00000000000000000000000000000000000000000000000000000000000000007f00000000000000000000000000000000000000000000000000000000000000006001546002545b6040516323b872dd60e01b8152336004820152306024820152604481018c9052939750919550935091506001600160a01b038516906323b872dd906064016020604051808303815f875af1158015610359573d5f803e3d5ffd5b505050506040513d601f19601f8201168201806040525081019061037d9190610e68565b6103ae5760405162461bcd60e51b815260206004820152600260248201526124a760f11b6044820152606401610257565b5f6127106103dc7f000000000000000000000000000000000000000000000000000000000000000082610e97565b6103ea9061ffff168a610eb9565b6103f49190610ed0565b90506104008184610eef565b61040a8383610eb9565b6104149190610ed0565b955086861015801561042557508186105b61045c5760405162461bcd60e51b8152602060048201526008602482015267534c49505041474560c01b6044820152606401610257565b8815610496578760015f8282546104739190610eef565b925050819055508560025f82825461048b9190610f02565b909155506104c59050565b8760025f8282546104a79190610eef565b925050819055508560015f8282546104bf9190610f02565b90915550505b60405163a9059cbb60e01b8152336004820152602481018790526001600160a01b0385169063a9059cbb906044016020604051808303815f875af115801561050f573d5f803e3d5ffd5b505050506040513d601f19601f820116820180604052508101906105339190610e68565b6105655760405162461bcd60e51b815260206004820152600360248201526213d55560ea1b6044820152606401610257565b604080518a15158152602081018a905290810187905233907ff067e8ca829f67e4f9be38e977ceedd503b4602e190ac8c71415bc72d2b8663a9060600160405180910390a250505050509392505050565b5f805f846105c9576002546001546105d0565b6001546002545b91509150815f036105e5575f92505050610651565b5f6127106106137f000000000000000000000000000000000000000000000000000000000000000082610e97565b6106219061ffff1687610eb9565b61062b9190610ed0565b90506106378184610eef565b6106418383610eb9565b61064b9190610ed0565b93505050505b92915050565b5f805f831180156106765750335f908152600460205260409020548311155b6106ab5760405162461bcd60e51b815260206004820152600660248201526553484152455360d01b6044820152606401610257565b6003546001546106bb9085610eb9565b6106c59190610ed0565b9150600354600254846106d89190610eb9565b6106e29190610ed0565b335f90815260046020526040812080549293508592909190610705908490610f02565b925050819055508260035f82825461071d9190610f02565b925050819055508160015f8282546107359190610f02565b925050819055508060025f82825461074d9190610f02565b909155505060405163a9059cbb60e01b8152336004820152602481018390527f00000000000000000000000000000000000000000000000000000000000000006001600160a01b03169063a9059cbb906044016020604051808303815f875af11580156107bc573d5f803e3d5ffd5b505050506040513d601f19601f820116820180604052508101906107e09190610e68565b6108155760405162461bcd60e51b8152602060048201526006602482015265150c17d3d55560d21b6044820152606401610257565b60405163a9059cbb60e01b8152336004820152602481018290527f00000000000000000000000000000000000000000000000000000000000000006001600160a01b03169063a9059cbb906044016020604051808303815f875af115801561087f573d5f803e3d5ffd5b505050506040513d601f19601f820116820180604052508101906108a39190610e68565b6108d85760405162461bcd60e51b8152602060048201526006602482015265150c57d3d55560d21b6044820152606401610257565b604080518381526020810183905290810184905233907f1dc8bb69df2b8e91fbdcbfcf93d951b3f0000f085a95fe3f7946d6161439245d9060600160405180910390a2915091565b5f808311801561092f57505f82115b6109645760405162461bcd60e51b8152600401610257906020808252600490820152635a45524f60e01b604082015260600190565b6040516323b872dd60e01b8152336004820152306024820152604481018490527f00000000000000000000000000000000000000000000000000000000000000006001600160a01b0316906323b872dd906064016020604051808303815f875af11580156109d4573d5f803e3d5ffd5b505050506040513d601f19601f820116820180604052508101906109f89190610e68565b610a2c5760405162461bcd60e51b81526020600482015260056024820152642a182fa4a760d91b6044820152606401610257565b6040516323b872dd60e01b8152336004820152306024820152604481018390527f00000000000000000000000000000000000000000000000000000000000000006001600160a01b0316906323b872dd906064016020604051808303815f875af1158015610a9c573d5f803e3d5ffd5b505050506040513d601f19601f82011682018060405250810190610ac09190610e68565b610af45760405162461bcd60e51b81526020600482015260056024820152642a18afa4a760d91b6044820152606401610257565b60035415610b3e57610b3960015460035485610b109190610eb9565b610b1a9190610ed0565b600254600354610b2a9086610eb9565b610b349190610ed0565b610cce565b610b50565b610b50610b4b8385610eb9565b610ce5565b90505f8111610b8f5760405162461bcd60e51b815260206004820152600b60248201526a5a45524f5f53484152455360a81b6044820152606401610257565b335f9081526004602052604081208054839290610bad908490610eef565b925050819055508060035f828254610bc59190610eef565b925050819055508260015f828254610bdd9190610eef565b925050819055508160025f828254610bf59190610eef565b9091555050604080518481526020810184905290810182905233907f64b83944e79c3ce8d4c297411de637c3e102d064677aac0c163976ebdcd6f50e9060600160405180910390a292915050565b5f8054610c4f90610f15565b80601f0160208091040260200160405190810160405280929190818152602001828054610c7b90610f15565b8015610cc65780601f10610c9d57610100808354040283529160200191610cc6565b820191905f5260205f20905b815481529060010190602001808311610ca957829003601f168201915b505050505081565b5f818310610cdc5781610cde565b825b9392505050565b5f6003821115610d445750805f610cfd600283610ed0565b610d08906001610eef565b90505b81811015610d3e57905080600281610d238186610ed0565b610d2d9190610eef565b610d379190610ed0565b9050610d0b565b50919050565b8115610d4e575060015b919050565b8015158114610d60575f80fd5b50565b5f805f60608486031215610d75575f80fd5b8335610d8081610d53565b95602085013595506040909401359392505050565b5f8060408385031215610da6575f80fd5b8235610db181610d53565b946020939093013593505050565b5f60208284031215610dcf575f80fd5b5035919050565b5f8060408385031215610de7575f80fd5b50508035926020909101359150565b5f602080835283518060208501525f5b81811015610e2257858101830151858201604001528201610e06565b505f604082860101526040601f19601f8301168501019250505092915050565b5f60208284031215610e52575f80fd5b81356001600160a01b0381168114610cde575f80fd5b5f60208284031215610e78575f80fd5b8151610cde81610d53565b634e487b7160e01b5f52601160045260245ffd5b61ffff828116828216039080821115610eb257610eb2610e83565b5092915050565b808202811582820484141761065157610651610e83565b5f82610eea57634e487b7160e01b5f52601260045260245ffd5b500490565b8082018082111561065157610651610e83565b8181038181111561065157610651610e83565b600181811c90821680610f2957607f821691505b602082108103610d3e57634e487b7160e01b5f52602260045260245ffdfea2646970667358221220c3eddfc8f25a2cafe5c751378a838f8883bad3eb675399ba83568c2e105a933a64736f6c63430008180033","linkReferences":{}},"methodIdentifiers":{"addLiquidity(uint256,uint256)":"9cd441da","feeBps()":"24a9d853","pair()":"a8aa1b31","quote(bool,uint256)":"4df60b01","removeLiquidity(uint256)":"9c8f9f23","reserve0()":"443cb4bc","reserve1()":"5a76f25e","shares(address)":"ce7c2ac2","swap(bool,uint256,uint256)":"08c84c21","token0()":"0dfe1681","token1()":"d21220a7","totalShares()":"3a98ef39"},"id":16}